:100000000C9445010C9476010C9476010C947601C5
:100010000C9476010C9476010C9476010C94760184
:100020000C9476010C9476010C9476010C94760174
:100030000C9476010C9499090C9476010C94760139
:100040000C9476010C9476010C9476010C94760154
:100050000C9476010C9476010C9476010C94980A19
:100060000C9476010C94620A0C94380A0C94760174
:100070000C9476010C9476010C9476010C94760124
:100080000C9476010C9476010C9476010C94760114
:100090000C9476010C9476010C9476010C94760104
:1000A0000C9476010C9476010C9476010C947601F4
:1000B0000C9476010C9476010C9476010C947601E4
:1000C0000C9476010C9476010C9476010C947601D4
:1000D0000C9476010C9476010C9476010C947601C4
:1000E0000C9476010C9450020C9466030C94F70265
:1000F0000C949D030C9485030C947B030C94740363
:100100000C94AF070C9470030C94B0070C94A703E5
:100110000C9464020C9472020C948F030C94AA0247
:100120000C94D8030C948B030C94A1030C94011130
:100130000C940B020C946C030C94F30A0C9499032A
:100140000C9441020C94FD050C9409040C94780362
:100150000C94AB030C9493030C9405090C94A60324
:100160000C94810300002100240027002A002D00A8
:100170003000330001010000040107010A01000002
:1001800020002300260029002C002F00320000014F
:10019000000003010601090100000A0B02090C0D11
:1001A0000E0807030401000000000000000000002A
:1001B000000000000000000000000000000000003F
:1001C00000000000121110000000000000000000FC
:1001D000000000000000000000000000000001021C
:1001E0001020200808102040102040800201020149
:1001F0000804020101020408102040808040201001
:100200000804020180040201804020100804020159
:1002100008040201010204081020408001020408C1
:100220001020408000002200250028002B002E0016
:100230003100340002010000050108010B01050531
:100240000505070508080808020202020A0A08084C
:10025000040404040101010101010101030303037A
:1002600003030303040707070C0C0C0C0C0C0C0C09
:100270000202020206060606060606060B0B0B0B1A
:100280000B0B0B0B0200F30A011111241FBECFEF61
:10029000D1E2DEBFCDBF00E00CBF24E0ACE0B3E0B4
:1002A00001C01D92A537B207E1F713E0A0E0B2E06C
:1002B000E4EEF6E200E00BBF02C007900D92AC3016
:1002C000B107D9F711E0C4E4D1E000E006C02197FE
:1002D0000109802FFE010E944211C334D10780E042
:1002E0000807A9F70E94BE0B0C9460130C94000041
:1002F00096E0899FD0011124AE5FBB4F90967C930E
:100300006E935F9791E091969C939197E0916F0423
:10031000F091700490916E04992339F0309751F068
:10032000811108C080911E041994309719F05C96D1
:100330008C91FACF0895CF92DF92EF92FF920F93B4
:100340001F9396E0899FF0011124EE5FFB4F11A2ED
:10035000278D30A12130310551F178F0223031055F
:1003600009F451C02330310509F452C01F910F9197
:10037000FF90EF90DF90CF9008956623B9F361E08E
:1003800070E00E9478012FB7F89480911703909144
:100390001803A0911903B0911A032FBF80935A0438
:1003A00090935B04A0935C04B0935D04DFCF9FB790
:1003B000F894C0901703D0901803E0901903F090C0
:1003C0001A039FBF00915A0410915B0420915C04B2
:1003D00030915D04C01AD10AE20AF30A00916C045C
:1003E00010916D0430E020E00C151D052E053F0531
:1003F00050F462E070E01F910F91FF90EF90DF905A
:10040000CF900C9478016111B1CF63E070E0F3CF2D
:1004100070E060E0F0CFAF92BF92CF92DF92EF92A8
:10042000FF920F931F93CF93DF936C017B018B019E
:10043000040F151FEB015E01AE18BF08C017D107EE
:1004400059F06991D601ED91FC910190F081E02D78
:10045000C6011995892B79F7C501DF91CF911F91BD
:100460000F91FF90EF90DF90CF90BF90AF900895E5
:10047000FC0144815581608171818AEE93E00C9486
:100480000B02FC01538D448D252F30E0842F90E02A
:10049000821B930B541710F0CF960895019708957F
:1004A000FC01918D828D981761F0A28DAE0FBF2F48
:1004B000B11D5D968C91928D9F5F9F73928F90E09E
:1004C00008958FEF9FEF0895FC01918D828D98170D
:1004D00031F0828DE80FF11D858D90E008958FEF4A
:1004E0009FEF0895FC01918D228D892F90E0805C13
:1004F0009F4F821B91098F73992708958BE393E097
:100500000E94720221E0892B09F420E0822F0895D5
:10051000FC01A48DA80FB92FB11DA35ABF4F2C9178
:10052000848D90E001968F739927848FA689B7896F
:100530002C93A089B1898C91837080648C93938D66
:10054000848D981306C00288F389E02D80818F7D09
:1005500080830895EF92FF920F931F93CF93DF93C1
:10056000EC0181E0888F9B8D8C8D98131AC0E889EF
:10057000F989808185FF15C09FB7F894EE89FF89BE
:100580006083E889F98980818370806480839FBF5C
:1005900081E090E0DF91CF911F910F91FF90EF905C
:1005A0000895F62E0B8D10E00F5F1F4F0F7311276C
:1005B000E02E8C8D8E110CC00FB607FCFACFE889A7
:1005C000F989808185FFF5CFCE010E948802F1CFA5
:1005D000EB8DEC0FFD2FF11DE35AFF4FF0829FB71B
:1005E000F8940B8FEA89FB8980818062CFCFCF930B
:1005F000DF93EC01888D8823B9F0AA89BB89E8894B
:10060000F9898C9185FD03C0808186FD0DC00FB6F0
:1006100007FCF7CF8C9185FFF2CF808185FFEDCF6E
:10062000CE010E948802E9CFDF91CF91089580E04A
:1006300090E0892B29F00E947E0281110E94000027
:1006400080E090E0892B49F080E090E0892B29F050
:100650000E94000081110E94000080E090E0892B40
:1006600049F080E090E0892B29F00E940000811180
:100670000E94000080E090E0892B49F080E090E04B
:10068000892B29F00E94000081110C94000008952C
:100690008150823108F05AC0E82FF0E08827EC5AE8
:1006A000FC4F8F4F0C9442117403780366036C0364
:1006B0007003A6037B03810385038B038F039303DE
:1006C00099039D03A603A103A703AB0380918000B8
:1006D0008F77809380000895809180008F7DF9CF7F
:1006E00080918000877FF5CF84B58F7784BD089592
:1006F00084B58F7DFBCF8091B0008F778093B00061
:1007000008958091B0008F7DF9CF809190008F7710
:10071000809390000895809190008F7DF9CF809113
:100720009000877FF5CF8091A0008F778093A00005
:1007300008958091A0008F7DF9CF8091A000877FE0
:10074000F5CF809120018F778093200108958091CB
:1007500020018F7DF9CF80912001877FF5CFCF9346
:10076000DF93282F30E0F901E856FE4F8491F9011C
:10077000E252FE4FD491F901E25CFD4FC491CC23CB
:10078000A1F081110E944803EC2FF0E0EE0FFF1F53
:10079000E258FE4FA591B491EC91ED2381E090E0F9
:1007A00009F480E0DF91CF91089580E090E0FACFE6
:1007B000862F0C94AF031F93CF93DF93282F30E045
:1007C000F901E856FE4F8491F901E252FE4FD491AF
:1007D000F901E25CFD4FC491CC23A9F0162F8111E1
:1007E0000E944803EC2FF0E0EE0FFF1FEC5DFD4F81
:1007F000A591B4918FB7F894EC91111108C0D095E0
:10080000DE23DC938FBFDF91CF911F910895DE2B04
:10081000F8CF862F642F0C94DB03CF93DF9390E007
:10082000FC01E252FE4F2491825C9D4FFC018491B9
:100830008823C9F090E0880F991FFC01EC59FE4F06
:10084000A591B491FC01EC5DFD4FC591D49161116E
:100850000DC09FB7F8948C91209582238C9388814A
:10086000282328839FBFDF91CF910895623051F4F0
:100870009FB7F8943C91822F809583238C93E881D5
:100880002E2BEFCF8FB7F894EC912E2B2C938FBF9C
:10089000EACFCF9380910002873121F08F3F61F141
:1008A000CF910895E4E8F2E0C491C7FDF9CF61E08B
:1008B00087E10E940D04CC2309F4F1C0C23009F095
:1008C00006C18091B100887F83608093B10089EF79
:1008D0008093B30088EC90E0A0E0B0E080932F0319
:1008E00090933003A0933103B09332038091700052
:1008F000826080937000D4CF87E180930002E4E8A7
:10090000F2E0C4918C2FCF3F59F2C23009F468C095
:1009100060F4CC2379F1C13009F444C087FDC0CF25
:1009200061E087E10E940D04C9CFC43009F499C089
:1009300008F478C0C53091F710922001109221017F
:100940008091210188608093210180912101816043
:1009500080932101E5E5F2E0E491F0E0EE0FFF1F66
:10096000EC5DFD4F85919491E5EFF1E0E491E0932A
:100970001B039DCF14BC15BC84B5826084BD85B5B6
:10098000816085BDE5E5F2E0E491F0E0EE0FFF1F48
:10099000EC5DFD4F85919491E5EFF1E0E491E093FA
:1009A000220385CF109280001092810080918100F7
:1009B00088608093810080918100816080938100B4
:1009C000E5E5F2E0E491F0E0EE0FFF1FEC5DFD4F96
:1009D00085919491E5EFF1E0E491E093210367CFF5
:1009E0001092B0001092B1008091B00082608093AC
:1009F000B0008091B10081608093B100E5E5F2E044
:100A0000E491F0E0EE0FFF1FEC5DFD4F85919491B6
:100A10009093200380931F03E5EFF1E0E491E093CE
:100A20001E0345CF1092900010929100809191008A
:100A30008860809391008091910081608093910003
:100A4000E5E5F2E0E491F0E0EE0FFF1FEC5DFD4F15
:100A500085919491E5EFF1E0E491E0931D03C3E00B
:100A600026CF1092A0001092A1008091A100886072
:100A70008093A1008091A10081608093A100E5E5B1
:100A8000F2E0E491F0E0EE0FFF1FEC5DFD4F859189
:100A90009491E5EFF1E0E491E0931C0308CF85B574
:100AA000887F836085BD8CE787BD88EC90E0A0E0FF
:100AB000B0E08093370390933803A0933903B09349
:100AC0003A0380916E00826080936E00E9CEC1305F
:100AD000F1F480918100887F8160809381008FE3B1
:100AE0009FE1909389008093880088EC90E0A0E0DB
:100AF000B0E08093330390933403A0933503B09315
:100B0000360380916F00826080936F00C9CEC3303E
:100B1000F1F480919100887F8160809391008FE350
:100B20009FE1909399008093980088EC90E0A0E07A
:100B3000B0E080932B0390932C03A0932D03B093EC
:100B40002E0380917100826080937100A9CEC43021
:100B5000F1F48091A100887F81608093A1008FE3F0
:100B60009FE19093A9008093A80088EC90E0A0E01A
:100B7000B0E08093270390932803A0932903B093B8
:100B80002A038091720082608093720089CEC53002
:100B9000F1F480912101887F8160809321018FE3AE
:100BA0009FE1909329018093280188EC90E0A0E0D8
:100BB000B0E08093230390932403A0932503B09384
:100BC00026038091730082608093730069CEC230E7
:100BD00091F034F4CC2369F0C13009F061CE7FCFBD
:100BE000C43009F4BCCF0CF49ACFC53009F058CE0C
:100BF000D6CF8FE359CF8FE36BCE862F642F0C9423
:100C00000D046F927F928F929F92AF92BF92CF927C
:100C1000DF92EF92FF920F931F93CF93DF9381E0C8
:100C200080936E048FB7F894409117035091180386
:100C30006091190370911A038FBF80915E049091A7
:100C40005F04A0916004B0916104481B590B6A0BCA
:100C50007B0B80916A0490916B04B0E0A0E0841754
:100C60009507A607B70708F01DC1C0E0809168048A
:100C7000C81760F4E0916404F0916504EC0FF11D75
:100C800062E080810E940D04CF5FF0CF712C812C37
:100C9000912C5401839480916904781608F05FC008
:100CA000072D10E0E0916604F0916704E00FF11F5A
:100CB00061E080810E940D04E0916604F091670478
:100CC000E00FF11F60E080810E94DB03D501C401C9
:100CD000072C04C0880F991FAA1FBB1F0A94D2F7C4
:100CE0006C017C01E094F094612C8091680468169A
:100CF000F8F4C62DD0E0E0916404F0916504EC0FA7
:100D0000FD1F80810E94AF032496CC0FDD1FCE5FB4
:100D1000DB4F892B41F4888199818C299D29998306
:100D200088836394E2CF888199818E219F21F7CFB8
:100D3000E0916604F0916704E00FF11F61E08081AB
:100D40000E94DB038091660490916704080F191FCD
:100D500060E0F80180810E940D0473949CCFC2E092
:100D6000D4E0FE018FEF9FEF278D30A1232B21F4DC
:100D7000148E968F858F11A2369624E0EE33F207FB
:100D800099F7F12C96E0D92E80916804F81608F0B6
:100D900050C0E12C0F2D10E0000F111F065F1B4FFC
:100DA00020916904E21608F042C0F8016081718167
:100DB0000E2C02C0769567950A94E2F7F29E900198
:100DC00011242E0D311DE2E0F4E080E0458D568DBA
:100DD0002417350709F46AC08F5F36968A30B1F759
:100DE00060FF23C0E2E0F4E090E080E0448D411138
:100DF00017C0E0916204F0916304E20FF31F408199
:100E0000D89EF001D99EF00D1124EE5FFB4F448F68
:100E1000368F258F10A2178E61E00E949B0105C0BE
:100E2000019636968A30910509F7E394B9CFF39489
:100E3000ABCF80E099A19111892F2696F4E0CE33B3
:100E4000DF07C1F79FB7F89440911703509118033B
:100E50006091190370911A039FBF40935E045093F1
:100E60005F0460936004709361048823D9F08091DB
:100E700023048823B9F080912104909122040197E2
:100E800089F480911E04DF91CF911F910F91FF9003
:100E9000EF90DF90CF90BF90AF909F908F907F901A
:100EA0006F90089510926E0480E0EDCF6170B5CF21
:100EB0003FB7F89480910D0390910E03A0910F031A
:100EC000B091100326B5A89B05C02F3F19F00196DD
:100ED000A11DB11D3FBFBA2FA92F982F8827BC0194
:100EE000CD01620F711D811D911D42E0660F771FBC
:100EF000881F991F4A95D1F708958F929F92AF92BC
:100F0000BF92CF92DF92EF92FF924B015C010E9461
:100F100058076B017C010E9458076C197D098E09E6
:100F20009F09683E734081059105A8F321E0821A6C
:100F30009108A108B10888EEC80E83E0D81EE11C14
:100F4000F11C81149104A104B10429F7FF90EF90E2
:100F5000DF90CF90BF90AF909F908F9008950895AD
:100F600090E080E00895CF93DF93EC0160E08E8104
:100F70000E94DB0361E08E810E94DB0360E08E81D2
:100F80000E94DB038BE891E00197F1F7DF91CF91AD
:100F90000895CF92DF92EF92FF920F931F93CF931A
:100FA000DF936C017C0187E0E80EF11CD0E0C0E02B
:100FB000062F10E0B8010C2E02C0759567950A94B3
:100FC000E2F76170F70181917F010E94DB032196B6
:100FD000C430D10579F7C601DF91CF911F910F91F0
:100FE000FF90EF90DF90CF900C94B307CF92DF92F9
:100FF000EF92FF920F931F93CF93DF93EC01F62EA6
:10100000642F8C810E94DB038D818F3F19F060E09B
:101010000E94DB030F2D10E08F8584FF25C06E0139
:1010200087E0C80ED11CF12CE12CB8010E2C02C0B7
:10103000759567950A94E2F76170F60181916F01E9
:101040000E94DB03FFEFEF1AFF0A88E0E816F104C5
:1010500061F7CE01DF91CF911F910F91FF90EF903B
:10106000DF90CF900C94B307B80184E07595679535
:101070008A95E1F7CE010E94C9076F2DCE01DF915D
:10108000CF911F910F91FF90EF90DF90CF900C9434
:10109000C90740E0682F8AEE93E00C94F60781E0E0
:1010A0000E9449088BE39FE10197F1F70895CF93E0
:1010B000DF93613029F09091F90398609093F903E0
:1010C0006093FD031092FE0390E49093FF038093DE
:1010D0000004805C8093010461E08091EE030E9433
:1010E0000D048091EF038F3F19F061E00E940D0421
:1010F00061E08091F0030E940D04CAEED3E09E01EE
:101100002A5E33408091F90384FD0BC084E090E0B7
:1011100021962817390744F461E08E810E940D045E
:10112000EECF88E090E0F4CF8BE39DE00197F1F7FC
:1011300060E08091EE030E94DB0360E08091F003A9
:101140000E94DB038091EF038F3F19F060E00E9463
:10115000DB038091F90384FD34C063E08AEE93E001
:101160000E94C907CBE4D6E4CE010197F1F763E012
:101170008AEE93E00E94C9072197F1F763E08AEEB7
:1011800093E00E94C90783E592E00197F1F762E0DE
:101190008AEE93E00E94C9078091F90380620E9461
:1011A000490884E08093FA038CE00E9449080E9479
:1011B0004F0882E08093FB0386E0DF91CF910C948F
:1011C000490880620E9449088BE496E40197F1F790
:1011D0008091F90380620E94490883E592E00197BB
:1011E000F1F78091F90380620E944908D5CF909170
:1011F000FD03891710F08FEF890FE82FF0E0E6511B
:10120000FC4F848980680C94490841E00E94F607ED
:1012100081E090E00895FB0101900020E9F731970B
:10122000AF01461B570BDC01ED91FC910280F3816D
:10123000E02D1994FC0180819181009711F00C94AC
:10124000E6110895EF92FF920F931F93CF93DF93D0
:10125000EC017B018A0188819981009729F02A811C
:101260003B812417350788F4B8016F5F7F4F0E94D8
:101270006F12009791F0998388831B830A832C81D6
:101280003D81232B11F4FC0110821D830C83B701D7
:10129000888199810E9459130CC088819981009797
:1012A00011F00E94E611198218821D821C821B8295
:1012B0001A82CE01DF91CF911F910F91FF90EF9095
:1012C0000895EF92FF920F931F93CF93DF93CDB7C3
:1012D000DEB762970FB6F894DEBF0FBECDBF8C01AC
:1012E000CB01F801118210821382128215821482BE
:1012F0004AE09E012F5F3F4F7901B9010E940D1115
:10130000F70101900020E9F73197AF014E195F090D
:10131000B701C8010E94220962960FB6F894DEBF99
:101320000FBECDBFDF91CF911F910F91FF90EF9036
:1013300008951F920F920FB60F9211240BB60F92C1
:101340002F933F934F935F936F937F938F939F93CD
:10135000AF93BF93EF93FF9380912F03909130034E
:10136000A0913103B0913203892B8A2B8B2BE1F1B1
:1013700090911E03E0911F03F09120038081892743
:10138000808380912F0390913003A0913103B0911D
:101390003203181619061A061B069CF480912F03B7
:1013A00090913003A0913103B09132030197A109CC
:1013B000B10980932F0390933003A0933103B0932E
:1013C0003203FF91EF91BF91AF919F918F917F91E8
:1013D0006F915F914F913F912F910F900BBE0F90A6
:1013E0000FBE0F901F90189580910002E4E8F2E084
:1013F000E4919FEF90930002E230E9F040F4EE2395
:1014000089F0E13091F060E00E94DB03DACFE43054
:1014100049F110F1E530B9F7909173009D7F9093F9
:101420007300F1CF10926E00EECF90916F009D7F10
:1014300090936F00E8CF909170009D7F9093700023
:1014400091E09093B0009091B100987F9460909358
:10145000B1001092B300D7CF909171009D7F90930F
:101460007100D1CF909172009D7F90937200CBCF8D
:101470001F920F920FB60F9211240BB60F922F935B
:101480003F934F935F936F937F938F939F93AF930C
:10149000BF93EF93FF938BE393E00E948802FF9149
:1014A000EF91BF91AF919F918F917F916F915F91DC
:1014B0004F913F912F910F900BBE0F900FBE0F9049
:1014C0001F9018951F920F920FB60F9211240BB612
:1014D0000F922F938F939F93EF93FF93E0914B0382
:1014E000F0914C038081E0915103F091520382FD11
:1014F0001DC09081809154038F5F8F73209155039D
:10150000821741F0E0915403F0E0E55CFC4F958FC9
:1015100080935403FF91EF919F918F912F910F90A2
:101520000BBE0F900FBE0F901F9018958081F2CFC9
:101530001F920F920FB60F9211242F933F938F9308
:101540009F93AF93BF938091170390911803A0913D
:101550001903B0911A0330910C0323E0230F2D37A8
:1015600058F50196A11DB11D20930C03809317031C
:1015700090931803A0931903B0931A0380910D035D
:1015800090910E03A0910F03B09110030196A11D3D
:10159000B11D80930D0390930E03A0930F03B0939E
:1015A0001003BF91AF919F918F913F912F910F9019
:1015B0000FBE0F901F90189526E8230F0296A11DCD
:1015C000B11DD2CFFC0111821082138212821582CA
:1015D0001482FB0101900020E9F73197AF01461B0F
:1015E000570B0C94220910923E0310923D0388EE93
:1015F00093E0A0E0B0E080933F0390934003A0937A
:101600004103B093420383E292E090933C038093C2
:101610003B0385EC90E0909348038093470384EC70
:1016200090E090934A038093490380EC90E090937C
:101630004C0380934B0381EC90E090934E03809396
:101640004D0382EC90E09093500380934F0386EC1F
:1016500090E09093520380935103109254031092A0
:1016600055031092560310925703109204041092DF
:101670000804109207041092090481E492E0909308
:10168000030480930204EEE1F4E0108214821382DA
:101690001582369684E0EA35F807B9F785E092E0DE
:1016A000909365048093640481E092E090936704D2
:1016B0008093660484E0809368048093690489E0E1
:1016C00092E090936304809362048AE090E09093A8
:1016D0006B0480936A0484EF91E090936D0480938F
:1016E0006C041092700410926F0410925E041092B9
:1016F0005F04109260041092610410926E041092C4
:10170000ED031092EC0385E392E09093EB0380935A
:10171000EA038EE08093EE038FEF8093EF038FE078
:101720008093F00380E18093F10381E18093F203E1
:1017300083E18093F30384E18093F4031092F50333
:101740001092F6031092F7031092F8031092F90327
:1017500061E080E10E94570867E472E084EE93E064
:101760000E94E20A6DE472E08EED93E00E94E20ACC
:1017700063E572E088ED93E00C94E20ACF93DF9387
:1017800000D000D0CDB7DEB7789484B5826084BD38
:1017900084B5816084BD85B5826085BD85B5816075
:1017A00085BD80916E00816080936E0010928100F3
:1017B00080918100826080938100809181008160AE
:1017C000809381008091800081608093800080916F
:1017D000B10084608093B1008091B00081608093FB
:1017E000B00080919100826080939100809191007F
:1017F000816080939100809190008160809390003F
:101800008091A10082608093A1008091A1008160FD
:101810008093A1008091A00081608093A0008091BE
:101820002101826080932101809121018160809358
:1018300021018091200181608093200180917A00B4
:10184000846080937A0080917A00826080937A002D
:1018500080917A00816080937A0080917A0080681C
:1018600080937A001092C10064E084E10E945708DE
:10187000E0914B03F0914C0382E08083E0914703B9
:10188000F09148031082E0914903F0914A038FECF4
:10189000808310925303E0914F03F091500386E050
:1018A0008083E0914D03F0914E03808180618083BD
:1018B000E0914D03F0914E03808188608083E09138
:1018C0004D03F0914E03808180688083E0914D0349
:1018D000F0914E0380818F7D808369E572E08AEE0E
:1018E00093E00E940B0961E087E10E940D0461E032
:1018F0008CE10E940D0461E08DE10E940D0461E025
:101900008CE10E94DB0360E08DE10E94DB0361E07B
:1019100086E30E940D0461E087E30E940D0461E00C
:1019200088E30E940D0461E089E30E940D0461E0F8
:101930008AE30E940D0461E08BE30E940D0461E0E4
:101940008CE30E940D0461E08DE30E940D0461E0D0
:101950008EE30E940D0461E08FE30E940D0461E0BC
:1019600083E40E940D0461E084E40E940D0461E0C0
:1019700085E40E940D0460E086E30E94DB0360E0E2
:1019800087E30E94DB0360E088E30E94DB0360E002
:1019900089E30E94DB0360E08AE30E94DB0360E0EE
:1019A0008BE30E94DB0360E08CE30E94DB0360E0DA
:1019B0008DE30E94DB0360E08EE30E94DB0360E0C6
:1019C0008FE30E94DB0360E083E40E94DB0360E0BE
:1019D00084E40E94DB0360E085E40E94DB038BE388
:1019E00093E00E947202892B09F47EC28BE393E09C
:1019F0000E9450028C010053110960E08CE10E94AA
:101A0000DB0361E08DE10E94DB030E9449040E9438
:101A10004F086EE672E08AEE93E00E940B0981E0C7
:101A20000E94F70863E872E08AEE93E00E940B09D7
:101A30000130110509F0E7C182E00E94F70868E96A
:101A400072E08AEE93E00E940B0984EE93E00E941C
:101A5000380261E086E30E94DB030E9401068D32BA
:101A600009F4F0C168E270E080E090E00E947D0738
:101A700060E086E30E94DB0361E087E30E94DB0312
:101A80000E9401068D3209F4DDC168E270E080E059
:101A900090E00E947D0760E087E30E94DB0361E045
:101AA00088E30E94DB030E9401068D3209F4CAC15B
:101AB00068E270E080E090E00E947D0760E088E3EB
:101AC0000E94DB0361E089E30E94DB030E940106C0
:101AD0008D3209F4B7C168E270E080E090E00E94C6
:101AE0007D0760E089E30E94DB0361E08DE30E94F3
:101AF000DB030E9401068D3209F4A4C168E270E0A4
:101B000080E090E00E947D0760E08DE30E94DB03AF
:101B100061E08CE30E94DB030E9401068D3209F430
:101B200091C168E270E080E090E00E947D0760E093
:101B30008CE30E94DB0361E08BE30E94DB030E94E5
:101B400001068D3209F47EC168E270E080E090E029
:101B50000E947D0760E08BE30E94DB0361E08AE383
:101B60000E94DB030E9401068D3209F46BC168E21A
:101B700070E080E090E00E947D0760E08AE30E94D0
:101B8000DB0361E08EE30E94DB030E9401068D32DD
:101B900009F458C168E270E080E090E00E947D079F
:101BA00060E08EE30E94DB0361E08FE30E94DB03D1
:101BB0000E9401068D3209F445C168E270E080E0C0
:101BC00090E00E947D0760E08FE30E94DB0361E00C
:101BD00083E40E94DB030E9401068D3209F432C1C6
:101BE00068E270E080E090E00E947D0760E083E4BE
:101BF0000E94DB0361E084E40E94DB030E94010693
:101C00008D3209F41FC168E270E080E090E00E942C
:101C10007D0760E084E40E94DB0361E085E40E94CC
:101C2000DB030E9401068D3209F40CC168E270E00A
:101C300080E090E00E947D0760E085E40E94DB0385
:101C400061E084E40E94DB030E9401068D3209F406
:101C5000F9C068E270E080E090E00E947D0760E0FB
:101C600084E40E94DB0361E083E40E94DB030E94C2
:101C700001068D3209F4E6C068E270E080E090E091
:101C80000E947D0760E083E40E94DB0361E08FE354
:101C90000E94DB030E9401068D3209F4D3C068E282
:101CA00070E080E090E00E947D0760E08FE30E949A
:101CB000DB0361E08EE30E94DB030E9401068D32AC
:101CC00009F4C0C068E270E080E090E00E947D0707
:101CD00060E08EE30E94DB0361E08AE30E94DB03A5
:101CE0000E9401068D3209F4ADC068E270E080E028
:101CF00090E00E947D0760E08AE30E94DB0361E0E0
:101D00008BE30E94DB030E9401068D3209F49AC026
:101D100068E270E080E090E00E947D0760E08BE385
:101D20000E94DB0361E08CE30E94DB030E9401065A
:101D30008D3209F487C068E270E080E090E00E9494
:101D40007D0760E08CE30E94DB0361E08DE30E948D
:101D5000DB030E9401068D3209F474C068E270E072
:101D600080E090E00E947D0760E08DE30E94DB034D
:101D700061E089E30E94DB030E9401068D3209F4D1
:101D800061C068E270E080E090E00E947D0760E062
:101D900089E30E94DB0361E088E30E94DB030E9489
:101DA00001068D3209F44EC068E270E080E090E0F8
:101DB0000E947D0760E088E30E94DB0361E087E327
:101DC0000E94DB030E9401068D32E1F168E270E0BF
:101DD00080E090E00E947D0760E087E30E94DB03E3
:101DE00061E086E30E94DB030E9401068D3251F11F
:101DF00068E270E080E090E00E947D0760E086E3AA
:101E00000E94DB0326CE0230110561F482E00E94BD
:101E1000F7086CE972E08AEE93E00E940B098EED00
:101E200093E015CE0330110509F013CE82E00E9435
:101E3000F70860EA72E08AEE93E00E940B0988EDF1
:101E400093E005CE60E086E30E94DB0360E087E379
:101E50000E94DB0360E088E30E94DB0360E089E32B
:101E60000E94DB0360E08AE30E94DB0360E08BE317
:101E70000E94DB0360E08CE30E94DB0360E08DE303
:101E80000E94DB0360E08EE30E94DB0360E08FE3EF
:101E90000E94DB0360E083E40E94DB0360E084E4F3
:101EA0000E94DB0360E085E40E94DB0361E08CE1DB
:101EB0000E94DB0360E08DE10E94DB030E94490485
:101EC0000E944F0869E572E08AEE93E00E940B09D8
:101ED000109216031092150310921403109213031C
:101EE00010921203109211030E9401068B3209F026
:101EF0002AC160E08CE10E94DB0361E08DE10E9479
:101F0000DB030E9449040E944F0864EA72E08AEEF3
:101F100093E00E940B0981E00E94F70868E972E0F3
:101F20008AEE93E00E940B0984EE93E00E9438024F
:101F300082E00E94F7086CE972E08AEE93E00E946A
:101F40000B098EED93E00E94380283E00E94F708AF
:101F500060EA72E08AEE93E00E940B0988ED93E05C
:101F60000E9438020E9401068823E1F3813309F0C0
:101F70004CC00E944F0869EB72E08AEE93E00E9429
:101F80000B0981E00E94F70863EC72E08AEE93E0AF
:101F90000E940B090E9401068823E1F3813309F0B6
:101FA000B2CF0E944F086CEC72E08AEE93E00E9480
:101FB0000B0981E00E94F70861EE72E08AEE93E07F
:101FC0000E940B0982E00E94F70868E972E08AEE3D
:101FD00093E00E940B0984EE93E00E943802809106
:101FE00015039091160301969093160380931503A1
:101FF00061EF72E08BE393E00E940B0968EC70E004
:1020000080E090E00E947D077ECF823309F042C0DD
:102010000E944F0869EB72E08AEE93E00E940B0980
:1020200081E00E94F70863EC72E08AEE93E00E9480
:102030000B090E9401068823E1F3813309F063CF85
:102040000E944F086CEC72E08AEE93E00E940B094C
:1020500081E00E94F70861EE72E08AEE93E00E9450
:102060000B0982E00E94F7086CE972E08AEE93E0C7
:102070000E940B098EED93E00E94380280911303B9
:10208000909114030196909314038093130363EFCC
:1020900072E0B0CF833309F042C00E944F0869EB71
:1020A00072E08AEE93E00E940B0981E00E94F7083B
:1020B00063EC72E08AEE93E00E940B090E94010635
:1020C0008823E1F3813309F01ECF0E944F086CECA6
:1020D00072E08AEE93E00E940B0981E00E94F7080B
:1020E00061EE72E08AEE93E00E940B0982E00E94AA
:1020F000F70860EA72E08AEE93E00E940B0988ED2F
:1021000093E00E943802809111039091120301968E
:10211000909312038093110365EF72E06BCF8D32C1
:10212000A9F461E08CE10E94DB0360E08DE10E9494
:10213000DB030E9449040E944F0869E572E08AEEC1
:1021400093E00E940B090E94170349CC8A3209F0E0
:10215000DACE0E944F0867EF72E08AEE93E00E94A9
:102160000B0981E00E94F70868E972E08AEE93E0CB
:102170000E940B096091150370911603CE01019620
:102180000E946109CE0101960E943802CE0101969B
:102190000E941A0982E00E94F7086CE972E08AEE58
:1021A00093E00E940B096091130370911403CE0118
:1021B00001960E946109CE0101960E943802CE016B
:1021C00001960E941A0983E00E94F70860EA72E013
:1021D0008AEE93E00E940B09609111037091120343
:1021E000CE0101960E946109CE0101960E9438023B
:1021F000CE0101960E941A0964EF71E080E090E040
:1022000001CF88ED93E00E941A098EED93E00E94C1
:102210001A0984EE93E00C941A09BB274A3031F472
:10222000992322F4BDE2909581959F4F0C9419114A
:10223000BB27FB015527AA27880F991FAA1FA417A0
:1022400010F0A41B83955051B9F7A05DAA3308F094
:10225000A95DA193009779F7B111B1931192CB01C8
:102260000C943211DC01FC01672F71917723E1F7A7
:10227000329704C07C916D9370836291AE17BF0753
:10228000C8F30895EE0FFF1F881F8BBF0790F691CC
:10229000E02D19940F931F93CF93DF938230910514
:1022A00010F482E090E0E0917304F091740430E067
:1022B00020E0B0E0A0E0309799F42115310509F451
:1022C0004AC0281B390B24303105D8F58A819B81FF
:1022D0006115710589F1FB0193838283FE0111C0B1
:1022E000408151810281138148175907E0F0481756
:1022F000590799F4109761F012960C931297139660
:102300001C933296CF01DF91CF911F910F910895C9
:102310000093730410937404F4CF2115310551F028
:102320004217530738F0A901DB019A01BD01DF0113
:10233000F801C1CFEF01F9CF909374048093730437
:10234000CDCFFE01E20FF31F81939193225031090B
:1023500039832883D7CF2091710430917204232BC5
:1023600041F420911B0230911C023093720420939F
:1023700071042091190230911A022115310541F49E
:102380002DB73EB740911D0250911E02241B350B04
:10239000E0917104F0917204E217F307A0F42E1B90
:1023A0003F0B2817390778F0AC014E5F5F4F2417B9
:1023B000350748F04E0F5F1F50937204409371042D
:1023C000819391939FCFF0E0E0E09CCFCF93DF9398
:1023D0000097E9F0FC01329713821282A0917304F6
:1023E000B0917404ED0130E020E01097A1F4208159
:1023F0003181820F931F209171043091720428174C
:10240000390709F061C0F0937204E0937104DF9121
:10241000CF910895EA01CE17DF07E8F54A815B8185
:102420009E0141155105B1F7E901FB83EA8349910A
:102430005991C40FD51FEC17FD0761F4808191817C
:102440000296840F951FE901998388838281938185
:102450009B838A83F0E0E0E012968D919C91139724
:102460000097B9F52D913C911197CD010296820FFD
:10247000931F20917104309172042817390739F69F
:10248000309751F51092740410927304B093720453
:10249000A0937104BCCFD383C28340815181840F48
:1024A000951FC817D90761F44E5F5F4F88819981E6
:1024B000480F591F518340838A819B819383828374
:1024C0002115310509F0B0CFF0937404E093730443
:1024D0009ECFFD01DC01C0CF13821282D7CF4F9275
:1024E0005F926F927F928F929F92AF92BF92CF92A4
:1024F000DF92EF92FF920F931F93CF93DF938C01A4
:10250000009799F4CB01DF91CF911F910F91FF902C
:10251000EF90DF90CF90BF90AF909F908F907F9083
:102520006F905F904F900C944A11FC01E60FF71FDB
:102530009C0122503109E217F30708F4AEC0D9011B
:10254000CD91DC911197C617D70720F1C530D10581
:1025500078F0CE0104978617970750F0C61BD70B6B
:102560002297C193D1936D937C93CF010E94E61182
:10257000C801DF91CF911F910F91FF90EF90DF90F5
:10258000CF90BF90AF909F908F907F906F905F9013
:102590004F9008955B01AC1ABD0A4C018C0E9D1E34
:1025A000A0917304B0917404512C412CF12CE12CB6
:1025B000109731F5809171049091720488159905F6
:1025C00009F05CC04616570608F058C08091190201
:1025D00090911A02009741F48DB79EB740911D0269
:1025E00050911E02841B950BE817F90708F055C09F
:1025F000F0937204E0937104F90171836083B8CFA2
:102600008D919C91119712966C90129713967C90D5
:102610001397A815B90559F56C0142E0C40ED11CF9
:10262000CA14DB0420F1AC014A195B09DA011296E5
:10263000159780F06282738251834083D9016D9334
:102640007C93E114F10471F0D7011396FC93EE939F
:1026500012978ECF22968C0F9D1FF9019183808354
:10266000F301EFCFF0937404E093730481CF481625
:10267000590608F42C017D01D3019ACFCB010E94A9
:102680004A117C01009749F0AE01B8010E94501335
:10269000C8010E94E61187016BCF10E000E068CF0F
:1026A000FB01DC0102C001900D9241505040D8F76F
:1026B0000895FB01DC0101900D920020E1F70895DF
:1026C00011E0C4E4D1E000E006C0802FFE010E94CA
:1026D00042112196011DC534D10780E00807A9F7F2
:0426E000F894FFCF9C
:1026E400FF05040302090807063738392F34353645
:1026F4002A3132332D43303D2B0000750480000015
:10270400000000AA020B024102F7027202500264A6
:10271400020000000005090B02B007AF070000002B
:1027240000FD050904D8035265697369007245699F
:1027340073690072654973690020202020202020DD
:10274400204F46462020202020202020200020202A
:10275400506F6C6C696E67206973204F76657221C7
:102764002020002020205468652057696E6E657211
:102774002069732020202000312E2000322E2000DA
:10278400332E200020202020205768696368204FC2
:102794006E653F202020202000312E436F6E666935
:1027A400726D00322E4368616E6765002020202020
:1027B4002020205468616E6B73202020202020206C
:1027C40000596F7520766F74656420666F722020DF
:1027D4000031003200330020202020546F646179DE
:0C27E400526573756C743A2020202000B0
:00000001FF
