:100000000C9445010C9476010C9476010C947601C5
:100010000C9476010C9476010C9476010C94760184
:100020000C9476010C9476010C9476010C94760174
:100030000C9476010C940A0A0C9476010C947601C7
:100040000C9476010C9476010C9476010C94760154
:100050000C9476010C9476010C9476010C94F90BB7
:100060000C9476010C94CF0B0C94A50B0C94760198
:100070000C9476010C9476010C9476010C94760124
:100080000C9476010C9476010C9476010C94760114
:100090000C947B0B0C94510B0C9476010C94760110
:1000A0000C9476010C9476010C9476010C947601F4
:1000B0000C9476010C9476010C9476010C947601E4
:1000C0000C9476010C9476010C9476010C94270B19
:1000D0000C94FD0A0C9476010C94D30A0C94A90A92
:1000E0000C9476010C94D4030C94CE030C94F80772
:1000F0000C9432020C944C030C9478020C94DC03A4
:100100000C948C0C0C94BD030C94D8030C94C10378
:100110000C94F0030C94F4030C94E6030C94460640
:100120000C94A1130C94FF020C94B9030C94EA03F1
:100130000C94C4030C94B5030C94F9070C94CA03F3
:100140000C94E2030C944E090C9452040C94210478
:100150000C94EF030C9487020C94AF030C949B0255
:100160000C94A90200002100240027002A002D0081
:100170003000330001010000040107010A01000002
:1001800020002300260029002C002F00320000014F
:10019000000003010601090100000A0B02090C0D11
:1001A0000E0807030401000000000000000000002A
:1001B000000000000000000000000000000000003F
:1001C00000000000121110000000000000000000FC
:1001D000000000000000000000000000000001021C
:1001E0001020200808102040102040800201020149
:1001F0000804020101020408102040808040201001
:100200000804020180040201804020100804020159
:1002100008040201010204081020408001020408C1
:100220001020408000002200250028002B002E0016
:100230003100340002010000050108010B01050531
:100240000505070508080808020202020A0A08084C
:10025000040404040101010101010101030303037A
:1002600003030303040707070C0C0C0C0C0C0C0C09
:100270000202020206060606060606060B0B0B0B1A
:100280000B0B0B0B02008C0CA11311241FBECFEF24
:10029000D1E2DEBFCDBF00E00CBF27E0A4E1B4E0B7
:1002A00001C01D92A435B207E1F714E0A0E0B2E06E
:1002B000EAE2FCE200E00BBF02C007900D92A4311D
:1002C000B107D9F711E0C4E4D1E000E006C02197FE
:1002D0000109802FFE010E94E513C334D10780E09D
:1002E0000807A9F70E940B0E0C9403160C9400004B
:1002F000FC01A089B18982E08C93A485B5851C920C
:10030000A685B7858FEC8C93108EA489B58986E07D
:100310008C93A289B3898C9180618C93A289B389D3
:100320008C9188608C93A289B3898C9180688C931E
:100330000288F389E02D80818F7D8083089596E087
:10034000899FD0011124AF51B94F90967C936E9341
:100350005F9791E091969C939197E0914E07F09171
:100360004F0790914D07992339F0309751F0811143
:1003700008C08091FD061994309719F05C968C9115
:10038000FACF0895CF92DF92EF92FF920F931F93CF
:1003900096E0899FF0011124EF51F94F11A2278DAA
:1003A00030A12130310551F178F02230310509F4C6
:1003B00051C02330310509F452C01F910F91FF90B5
:1003C000EF90DF90CF9008956623B9F361E070E07D
:1003D0000E949F012FB7F89480911F0490912004F0
:1003E000A0912104B09122042FBF809339079093EC
:1003F0003A07A0933B07B0933C07DFCF9FB7F89431
:10040000C0901F04D0902004E0902104F0902204BA
:100410009FBF0091390710913A0720913B07309117
:100420003C07C01AD10AE20AF30A00914B07109167
:100430004C0730E020E00C151D052E053F0550F45B
:1004400062E070E01F910F91FF90EF90DF90CF90EE
:100450000C949F016111B1CF63E070E0F3CF70E0C5
:1004600060E0F0CFAF92BF92CF92DF92EF92FF9217
:100470000F931F93CF93DF936C017B018B01040FCC
:10048000151FEB015E01AE18BF08C017D10759F068
:100490006991D601ED91FC910190F081E02DC601AA
:1004A0001995892B79F7C501DF91CF911F910F9194
:1004B000FF90EF90DF90CF90BF90AF900895FC0138
:1004C000A089B1898C91A689B78982FD0FC09C91C2
:1004D000818D8F5F8F73228D821749F0A18DAE0FB2
:1004E000BF2FB11D5D969C93818F08958C910895C7
:1004F000FC01538D448D252F30E0842F90E0821B2A
:10050000930B541710F0CF96089501970895FC01AE
:10051000918D828D981761F0A28DAE0FBF2FB11D06
:100520005D968C91928D9F5F9F73928F90E008955E
:100530008FEF9FEF0895FC01918D828D981731F018
:10054000828DE80FF11D858D90E008958FEF9FEF6C
:100550000895FC01918D228D892F90E0805C9F4F42
:10056000821B91098F739927089583E494E00E9478
:10057000A90221E0892B09F420E0822F089580EE62
:1005800094E00E94A90221E0892B09F420E0822F47
:1005900008958DE795E00E94A90221E0892B09F4D6
:1005A00020E0822F08958AE196E00E94A90221E0CE
:1005B000892B09F420E0822F0895FC01A48DA80F57
:1005C000B92FB11DA35ABF4F2C91848D90E0019695
:1005D0008F739927848FA689B7892C93A089B189B5
:1005E0008C91837080648C93938D848D981306C056
:1005F0000288F389E02D80818F7D80830895EF92BA
:10060000FF920F931F93CF93DF93EC0181E0888FCC
:100610009B8D8C8D98131AC0E889F989808185FF9C
:1006200015C09FB7F894EE89FF896083E889F9893E
:1006300080818370806480839FBF81E090E0DF9140
:10064000CF911F910F91FF90EF900895F62E0B8D93
:1006500010E00F5F1F4F0F731127E02E8C8D8E114E
:100660000CC00FB607FCFACFE889F989808185FFB5
:10067000F5CFCE010E94DD02F1CFEB8DEC0FFD2F07
:10068000F11DE35AFF4FF0829FB7F8940B8FEA8970
:10069000FB8980818062CFCFCF93DF93EC01888D7F
:1006A0008823B9F0AA89BB89E889F9898C9185FDED
:1006B00003C0808186FD0DC00FB607FCF7CF8C917B
:1006C00085FFF2CF808185FFEDCFCE010E94DD0254
:1006D000E9CFDF91CF91089580E090E0892B29F058
:1006E0000E94D30281110E94000080E090E0892BDB
:1006F00029F00E94C90281110E94000080E090E070
:10070000892B29F00E94BF0281110E94000080E025
:1007100090E0892B29F00E94B50281110C94000011
:1007200008958150823108F05AC0E82FF0E0882700
:10073000E356FC4F8F4F0C94E513BD03C103AF0389
:10074000B503B903EF03C403CA03CE03D403D8032C
:10075000DC03E203E603EF03EA03F003F403809112
:1007600080008F77809380000895809180008F7D36
:10077000F9CF80918000877FF5CF84B58F7784BDD6
:10078000089584B58F7DFBCF8091B0008F778093E3
:10079000B00008958091B0008F7DF9CF80919000D6
:1007A0008F77809390000895809190008F7DF9CF8E
:1007B00080919000877FF5CF8091A0008F77809304
:1007C000A00008958091A0008F7DF9CF8091A000B6
:1007D000877FF5CF809120018F7780932001089546
:1007E000809120018F7DF9CF80912001877FF5CF07
:1007F000CF93DF93282F30E0F901E856FE4F849124
:10080000F901E252FE4FD491F901E25CFD4FC4912F
:10081000CC23A1F081110E949103EC2FF0E0EE0FA8
:10082000FF1FE258FE4FA591B491EC91ED2381E0BA
:1008300090E009F480E0DF91CF91089580E090E0AE
:10084000FACF862F0C94F8031F93CF93DF93282FB2
:1008500030E0F901E856FE4F8491F901E252FE4F73
:10086000D491F901E25CFD4FC491CC23A9F0162F7D
:1008700081110E949103EC2FF0E0EE0FFF1FEC5D61
:10088000FD4FA591B4918FB7F894EC91111108C068
:10089000D095DE23DC938FBFDF91CF911F91089518
:1008A000DE2BF8CF862F642F0C942404CF93DF9394
:1008B00090E0FC01E252FE4F2491825C9D4FFC01CE
:1008C00084918823C9F090E0880F991FFC01EC59AE
:1008D000FE4FA591B491FC01EC5DFD4FC591D49103
:1008E00061110DC09FB7F8948C91209582238C9351
:1008F0008881282328839FBFDF91CF91089562309C
:1009000051F49FB7F8943C91822F809583238C9368
:10091000E8812E2BEFCF8FB7F894EC912E2B2C93F0
:100920008FBFEACFCF9380910002873121F08F3FB4
:1009300061F1CF910895E4E8F2E0C491C7FDF9CFE9
:1009400061E087E10E945604CC2309F4F1C0C23073
:1009500009F006C18091B100887F83608093B10067
:1009600089EF8093B30088EC90E0A0E0B0E0809342
:10097000370490933804A0933904B0933A048091DB
:100980007000826080937000D4CF87E18093000272
:10099000E4E8F2E0C4918C2FCF3F59F2C23009F461
:1009A00068C060F4CC2379F1C13009F444C087FDFC
:1009B000C0CF61E087E10E945604C9CFC43009F47A
:1009C00099C008F478C0C53091F7109220011092B8
:1009D0002101809121018860809321018091210172
:1009E000816080932101E5E5F2E0E491F0E0EE0F13
:1009F000FF1FEC5DFD4F85919491E5EFF1E0E491EF
:100A0000E09323049DCF14BC15BC84B5826084BDE3
:100A100085B5816085BDE5E5F2E0E491F0E0EE0F9B
:100A2000FF1FEC5DFD4F85919491E5EFF1E0E491BE
:100A3000E0932A0485CF109280001092810080916B
:100A40008100886080938100809181008160809323
:100A50008100E5E5F2E0E491F0E0EE0FFF1FEC5DD0
:100A6000FD4F85919491E5EFF1E0E491E093290445
:100A700067CF1092B0001092B1008091B0008260F8
:100A80008093B0008091B10081608093B100E5E572
:100A9000F2E0E491F0E0EE0FFF1FEC5DFD4F859179
:100AA00094919093280480932704E5EFF1E0E4917A
:100AB000E093260445CF109290001092910080910F
:100AC0009100886080939100809191008160809373
:100AD0009100E5E5F2E0E491F0E0EE0FFF1FEC5D40
:100AE000FD4F85919491E5EFF1E0E491E0932504C9
:100AF000C3E026CF1092A0001092A1008091A10027
:100B000088608093A1008091A10081608093A10002
:100B1000E5E5F2E0E491F0E0EE0FFF1FEC5DFD4F44
:100B200085919491E5EFF1E0E491E093240408CFFE
:100B300085B5887F836085BD8CE787BD88EC90E0B4
:100B4000A0E0B0E080933F0490934004A093410460
:100B5000B093420480916E00826080936E00E9CE73
:100B6000C130F1F480918100887F816080938100A1
:100B70008FE39FE1909389008093880088EC90E058
:100B8000A0E0B0E080933B0490933C04A0933D042C
:100B9000B0933E0480916F00826080936F00C9CE55
:100BA000C330F1F480919100887F8160809391003F
:100BB0008FE39FE1909399008093980088EC90E0F8
:100BC000A0E0B0E08093330490933404A093350404
:100BD000B093360480917100826080937100A9CE39
:100BE000C430F1F48091A100887F81608093A100DE
:100BF0008FE39FE19093A9008093A80088EC90E098
:100C0000A0E0B0E080932F0490933004A0933104CF
:100C1000B09332048091720082608093720089CE1A
:100C2000C530F1F480912101887F8160809321019A
:100C30008FE39FE1909329018093280188EC90E055
:100C4000A0E0B0E080932B0490932C04A0932D049B
:100C5000B0932E048091730082608093730069CEFC
:100C6000C23091F034F4CC2369F0C13009F061CE88
:100C70007FCFC43009F4BCCF0CF49ACFC53009F053
:100C800058CED6CF8FE359CF8FE36BCE862F642F0C
:100C90000C9456046F927F928F929F92AF92BF9264
:100CA000CF92DF92EF92FF920F931F93CF93DF9338
:100CB00081E080934D078FB7F89440911F045091C5
:100CC000200460912104709122048FBF80913D0720
:100CD00090913E07A0913F07B0914007481B590BE8
:100CE0006A0B7B0B8091490790914A07B0E0A0E026
:100CF00084179507A607B70708F01DC1C0E08091CB
:100D00004707C81760F4E0914307F0914407EC0FE0
:100D1000F11D62E080810E945604CF5FF0CF712CFC
:100D2000812C912C5401839480914807781608F007
:100D30005FC0072D10E0E0914507F0914607E00FF6
:100D4000F11F61E080810E945604E0914507F09117
:100D50004607E00FF11F60E080810E942404D50166
:100D6000C401072C04C0880F991FAA1FBB1F0A9437
:100D7000D2F76C017C01E094F094612C80914707DC
:100D80006816F8F4C62DD0E0E0914307F0914407CF
:100D9000EC0FFD1F80810E94F8032496CC0FDD1F0D
:100DA000CF51D94F892B41F4888199818C299D2974
:100DB000998388836394E2CF888199818E219F21D2
:100DC000F7CFE0914507F0914607E00FF11F61E092
:100DD00080810E9424048091450790914607080F66
:100DE000191F60E0F80180810E94560473949CCF23
:100DF000C1EED6E0FE018FEF9FEF278D30A1232BB0
:100E000021F4148E968F858F11A2369627E0ED314E
:100E1000F20799F7F12C96E0D92E80914707F81642
:100E200008F050C0E12C0F2D10E0000F111F0751EA
:100E3000194F20914807E21608F042C0F80160817E
:100E400071810E2C02C0769567950A94E2F7F29EA6
:100E5000900111242E0D311DE1EEF6E080E0458D6C
:100E6000568D2417350709F46AC08F5F36968A308D
:100E7000B1F760FF23C0E1EEF6E090E080E0448D42
:100E8000411117C0E0914107F0914207E20FF31FB3
:100E90004081D89EF001D99EF00D1124EF51F94FF9
:100EA000448F368F258F10A2178E61E00E94C201F9
:100EB00005C0019636968A30910509F7E394B9CFBB
:100EC000F394ABCF80E099A19111892F2696F7E09A
:100ED000CD31DF07C1F79FB7F89440911F045091BF
:100EE000200460912104709122049FBF40933D072C
:100EF00050933E0760933F07709340078823D9F0D3
:100F0000809102078823B9F0809100079091010732
:100F1000019789F48091FD06DF91CF911F910F9188
:100F2000FF90EF90DF90CF90BF90AF909F908F9009
:100F30007F906F90089510924D0780E0EDCF617023
:100F4000B5CF3FB7F8948091150490911604A09105
:100F50001704B091180426B5A89B05C02F3F19F0BF
:100F60000196A11DB11D3FBFBA2FA92F982F882729
:100F7000BC01CD01620F711D811D911D42E0660F04
:100F8000771F881F991F4A95D1F708958F929F92D6
:100F9000AF92BF92CF92DF92EF92FF924B015C0132
:100FA0000E94A1076B017C010E94A1076C197D09B9
:100FB0008E099F09683E734081059105A8F321E0E1
:100FC000821A9108A108B10888EEC80E83E0D81EE5
:100FD000E11CF11C81149104A104B10429F7FF90D4
:100FE000EF90DF90CF90BF90AF909F908F9008953B
:100FF000089590E080E00895CF93DF93EC0160E0E6
:101000008E810E94240461E08E810E94240460E0AD
:101010008E810E9424048BE891E00197F1F7DF9123
:10102000CF910895CF92DF92EF92FF920F931F938B
:10103000CF93DF936C017C0187E0E80EF11CD0E0D8
:10104000C0E0062F10E0B8010C2E02C07595679520
:101050000A94E2F76170F70181917F010E942404F4
:101060002196C430D10579F7C601DF91CF911F9148
:101070000F91FF90EF90DF90CF900C94FC07CF92F0
:10108000DF92EF92FF920F931F93CF93DF93EC01C8
:10109000F62E642F8C810E9424048D818F3F19F0DD
:1010A00060E00E9424040F2D10E08F8584FF25C08E
:1010B0006E0187E0C80ED11CF12CE12CB8010E2C7A
:1010C00002C0759567950A94E2F76170F601819107
:1010D0006F010E942404FFEFEF1AFF0A88E0E81670
:1010E000F10461F7CE01DF91CF911F910F91FF9035
:1010F000EF90DF90CF900C94FC07B80184E07595D9
:1011000067958A95E1F7CE010E9412086F2DCE01F6
:10111000DF91CF911F910F91FF90EF90DF90CF90D3
:101120000C94120840E0682F89EC96E00C943F087C
:1011300081E00E9492088BE39FE10197F1F7089507
:10114000CF93DF93613029F09091D8069860909307
:10115000D8066093DC061092DD0690E49093DE06DC
:101160008093DF06805C8093E00661E08091CD068D
:101170000E9456048091CE068F3F19F061E00E94D4
:10118000560461E08091CF060E945604C9ECD6E077
:101190009E01295C36408091D80684FD0BC084E016
:1011A00090E021962817390744F461E08E810E946F
:1011B0005604EECF88E090E0F4CF8BE39DE00197FA
:1011C000F1F760E08091CD060E94240460E08091F8
:1011D000CF060E9424048091CE068F3F19F060E074
:1011E0000E9424048091D80684FD34C063E089EC19
:1011F00096E00E941208CBE4D6E4CE010197F1F705
:1012000063E089EC96E00E9412082197F1F763E011
:1012100089EC96E00E94120883E592E00197F1F7CD
:1012200062E089EC96E00E9412088091D806806204
:101230000E94920884E08093D9068CE00E94920874
:101240000E94980882E08093DA0686E0DF91CF91D1
:101250000C94920880620E9492088BE496E40197B5
:10126000F1F78091D80680620E94920883E592E0AF
:101270000197F1F78091D80680620E949208D5CF3D
:101280009091DC06891710F08FEF890FE82FF0E0BE
:10129000E753F94F848980680C94920841E00E94DA
:1012A0003F0881E090E008958F929F92AF92BF92A5
:1012B000EF92FF920F931F93CF93DF93CDB7DEB7DB
:1012C000A1970FB6F894DEBF0FBECDBF7C01FA0127
:1012D000CB0119A2223008F42AE08E010F5D1F4FC6
:1012E000822E912CB12CA12CBF01A50194010E944A
:1012F000C313F901CA016A3074F5605DD8016E93B9
:101300008D01232B242B252B79F790E080E010977B
:1013100089F0FD0101900020E9F73197AF014A1BE8
:101320005B0BD701ED91FC910280F381E02DB801B8
:10133000C7011995A1960FB6F894DEBF0FBECDBFB9
:10134000DF91CF911F910F91FF90EF90BF90AF90E1
:101350009F908F900895695CD1CFCF92DF92EF92EA
:10136000FF920F931F93CF93DF936B01072E000C17
:10137000EE08FF0877FF1FC0EC01E881F9810190BA
:10138000F081E02D6DE219958C0144275527BA01B3
:101390004C195D096E097F092AE0CE010E945409AB
:1013A000800F911FDF91CF911F910F91FF90EF90D0
:1013B000DF90CF9008952AE0B701A601DF91CF9189
:1013C0001F910F91FF90EF90DF90CF900C945409F4
:1013D000482F50E070E060E02AE089EC96E00C9441
:1013E0005409FC0101900020E9F73197AF01481B37
:1013F000590BBC0189EC96E00C943202FC0180810F
:101400009181009711F00C94891408950C94B513F0
:101410000C94AD131F920F920FB60F9211240BB6BE
:101420000F922F933F934F935F936F937F938F937D
:101430009F93AF93BF93EF93FF9380913704909165
:101440003804A0913904B0913A04892B8A2B8B2B54
:10145000E1F190912604E0912704F0912804808125
:10146000892780838091370490913804A0913904B2
:10147000B0913A04181619061A061B069CF48091BE
:10148000370490913804A0913904B0913A0401973F
:10149000A109B1098093370490933804A0933904CB
:1014A000B0933A04FF91EF91BF91AF919F918F91CB
:1014B0007F916F915F914F913F912F910F900BBE54
:1014C0000F900FBE0F901F90189580910002E4E8D6
:1014D000F2E0E4919FEF90930002E230E9F040F4F3
:1014E000EE2389F0E13091F060E00E942404DACF2D
:1014F000E43049F110F1E530B9F7909173009D7F28
:1015000090937300F1CF10926E00EECF90916F0028
:101510009D7F90936F00E8CF909170009D7F909396
:10152000700091E09093B0009091B100987F94602A
:101530009093B1001092B300D7CF909171009D7F2E
:1015400090937100D1CF909172009D7F9093720023
:10155000CBCF1F920F920FB60F9211240BB60F92A2
:101560002F933F934F935F936F937F938F939F93AB
:10157000AF93BF93EF93FF9383E494E00E94DD0267
:10158000FF91EF91BF91AF919F918F917F916F915B
:101590005F914F913F912F910F900BBE0F900FBE17
:1015A0000F901F9018951F920F920FB60F92112453
:1015B0000BB60F922F933F934F935F936F937F934D
:1015C0008F939F93AF93BF93EF93FF9383E494E044
:1015D0000E945F02FF91EF91BF91AF919F918F9118
:1015E0007F916F915F914F913F912F910F900BBE23
:1015F0000F900FBE0F901F9018951F920F920FB66D
:101600000F9211240BB60F922F933F934F935F933A
:101610006F937F938F939F93AF93BF93EF93FF93BA
:1016200080EE94E00E94DD02FF91EF91BF91AF91B7
:101630009F918F917F916F915F914F913F912F91EA
:101640000F900BBE0F900FBE0F901F9018951F921A
:101650000F920FB60F9211240BB60F922F933F9358
:101660004F935F936F937F938F939F93AF93BF93AA
:10167000EF93FF9380EE94E00E945F02FF91EF9161
:10168000BF91AF919F918F917F916F915F914F919A
:101690003F912F910F900BBE0F900FBE0F901F9098
:1016A00018951F920F920FB60F9211240BB60F923E
:1016B0002F933F934F935F936F937F938F939F935A
:1016C000AF93BF93EF93FF938DE795E00E94DD0208
:1016D000FF91EF91BF91AF919F918F917F916F910A
:1016E0005F914F913F912F910F900BBE0F900FBEC6
:1016F0000F901F9018951F920F920FB60F92112402
:101700000BB60F922F933F934F935F936F937F93FB
:101710008F939F93AF93BF93EF93FF938DE795E0E4
:101720000E945F02FF91EF91BF91AF919F918F91C6
:101730007F916F915F914F913F912F910F900BBED1
:101740000F900FBE0F901F9018951F920F920FB61B
:101750000F9211240BB60F922F933F934F935F93E9
:101760006F937F938F939F93AF93BF93EF93FF9369
:101770008AE196E00E94DD02FF91EF91BF91AF9167
:101780009F918F917F916F915F914F913F912F9199
:101790000F900BBE0F900FBE0F901F9018951F92C9
:1017A0000F920FB60F9211240BB60F922F933F9307
:1017B0004F935F936F937F938F939F93AF93BF9359
:1017C000EF93FF938AE196E00E945F02FF91EF9111
:1017D000BF91AF919F918F917F916F915F914F9149
:1017E0003F912F910F900BBE0F900FBE0F901F9047
:1017F00018951F920F920FB60F9211242F933F93BB
:101800008F939F93AF93BF9380911F049091200477
:10181000A0912104B09122043091140423E0230FFD
:101820002D3758F50196A11DB11D20931404809306
:101830001F0490932004A0932104B093220480916C
:10184000150490911604A0911704B0911804019604
:10185000A11DB11D8093150490931604A093170445
:10186000B0931804BF91AF919F918F913F912F91A9
:101870000F900FBE0F901F90189526E8230F029629
:10188000A11DB11DD2CFEF92FF920F931F93CF9363
:10189000DF93EC017B01198218821B821A821D8260
:1018A0001C82FB0101900020E9F731978F01061B94
:1018B000170BB8016F5F7F4F90E080E00E94121518
:1018C0000097B9F0998388831B830A832C813D811B
:1018D000232B11F4FC0110821D830C83B701888136
:1018E0009981DF91CF911F910F91FF90EF900C9410
:1018F000FC1588819981009711F00E948914198242
:1019000018821D821C821B821A82DF91CF911F9147
:101910000F91FF90EF9008951092460410924504A5
:1019200048EE53E060E070E0409347045093480471
:101930006093490470934A0483E292E090934404D4
:101940008093430425E331E03093500420934F0407
:1019500024E331E0309352042093510420E331E03A
:10196000309354042093530421E331E03093560420
:101970002093550422E331E0309358042093570418
:1019800026E331E030935A042093590410925C040A
:1019900010925D0410925E0410925F041092E304B2
:1019A0001092E2044093E4045093E5046093E6044B
:1019B0007093E7049093E1048093E00425ED30E018
:1019C0003093ED042093EC0424ED30E03093EF04E9
:1019D0002093EE0420ED30E03093F1042093F004E6
:1019E00021ED30E03093F3042093F20422ED30E057
:1019F0003093F5042093F40426ED30E03093F7049F
:101A00002093F6041092F9041092FA041092FB0449
:101A10001092FC041092800510927F05409381057E
:101A200050938205609383057093840590937E059F
:101A300080937D052DEC30E030938A052093890555
:101A40002CEC30E030938C0520938B0528EC30E0B3
:101A500030938E0520938D0529EC30E0309390056E
:101A600020938F052AEC30E0309392052093910566
:101A70002EEC30E030939405209393051092960558
:101A800010929705109298051092990510921D06D4
:101A900010921C0640931E0650931F06609320066A
:101AA0007093210690931B0680931A0685EC90E0B4
:101AB000909327068093260684EC90E09093290665
:101AC0008093280680EC90E090932B0680932A0662
:101AD00081EC90E090932D0680932C0682EC90E0B0
:101AE00090932F0680932E0686EC90E0909331061B
:101AF0008093300610923306109234061092350609
:101B0000109236061092E3061092E7061092E6064F
:101B10001092E80681E492E09093E2068093E10659
:101B2000EDEFF6E01082148213821582369687E07C
:101B3000E933F807B9F785E092E090934407809382
:101B4000430781E092E0909346078093450784E045
:101B5000809347078093480789E092E0909342077B
:101B6000809341078AE090E090934A078093490769
:101B700084EF91E090934C0780934B0710924F07AE
:101B800010924E0710923D0710923E0710923F07A9
:101B90001092400710924D071092CC061092CB067F
:101BA00085E392E09093CA068093C90686E180930C
:101BB000CD068FEF8093CE0688E18093CF0689E132
:101BC0008093D0068AE18093D1068BE18093D20680
:101BD0008EE18093D3061092D4061092D50610920F
:101BE000D6061092D7061092D80661E080E10E94D6
:101BF000A00867E472E083EC96E00E94430C6DE479
:101C000072E08DEB96E00E94430C63E572E087EB97
:101C100096E00C94430C789484B5826084BD84B5BE
:101C2000816084BD85B5826085BD85B5816085BDD7
:101C300080916E00816080936E001092810080918F
:101C40008100826080938100809181008160809317
:101C50008100809180008160809380008091B1003C
:101C600084608093B1008091B00081608093B00067
:101C700080919100826080939100809191008160B9
:101C8000809391008091900081608093900080917A
:101C9000A10082608093A1008091A1008160809367
:101CA000A1008091A00081608093A000809121011B
:101CB00082608093210180912101816080932101C4
:101CC0008091200181608093200180917A0084605E
:101CD00080937A0080917A00826080937A0080916C
:101CE0007A00816080937A0080917A008068809386
:101CF0007A001092C10064E084E10E94A0088AE1A9
:101D000096E00E9478018DE795E00E94780180EED0
:101D100094E00E94780183E494E00E94780189E5D0
:101D200092E00E94F10961E087E10E94560461E0BF
:101D30008CE10E94560461E08DE10E94560461E04E
:101D40008CE10E94240460E08DE10E9424048AE179
:101D500096E00E94A902892B51F18AE196E00E9447
:101D60008702C0978130910509F01BC190E080E0A7
:101D70000E94080A90E08F3F910509F40DC19093ED
:101D80001E0480931D0460911D0470911E046F5FFA
:101D90007F4F70931E0460931D0490E080E00E94CA
:101DA000060A6AE070E080E090E00E94C6078DE7D6
:101DB00095E00E94A902892B51F18DE795E00E94E0
:101DC0008702C0978130910509F032C183E090E02D
:101DD0000E94080A90E08F3F910509F424C1909376
:101DE0001E0480931D0460911D0470911E046F5F9A
:101DF0007F4F70931E0460931D0483E090E00E9467
:101E0000060A6AE070E080E090E00E94C60780EE7B
:101E100094E00E94A902892B51F180EE94E00E9487
:101E20008702C0978130910509F049C186E090E0B2
:101E30000E94080A90E08F3F910509F43BC19093FE
:101E40001E0480931D0460911D0470911E046F5F39
:101E50007F4F70931E0460931D0486E090E00E9403
:101E6000060A6AE070E080E090E00E94C60783E422
:101E700094E00E94A902892B51F183E494E00E942E
:101E80008702C0978130910509F060C189E090E038
:101E90000E94080A90E08F3F910509F452C1909387
:101EA0001E0480931D0460911D0470911E046F5FD9
:101EB0007F4F70931E0460931D0489E090E00E94A0
:101EC000060A6AE070E080E090E00E94C6070E9487
:101ED0004A068B3209F09AC260E08CE10E94240429
:101EE00061E08DE10E9424040E9492040E949808FF
:101EF0008EE692E00E94F10981E00E94400983E8A9
:101F000092E00E94F10982E00E94400988E992E093
:101F10000E94F10983E00E9440098CEA92E00E944D
:101F2000F1090E944A068823E1F3813309F050C188
:101F30000E9498088CEB92E00E94F10981E00E94D7
:101F4000400981ED92E00E94F10990E080E00E945A
:101F5000080A0E94E80982E00E94400985ED92E0AB
:101F60000E94F10981E090E00E94080A0E94E809BD
:101F700083E00E94400989ED92E00E94F10982E02D
:101F800090E00E94080A0E94E80964EF71E080E096
:101F900090E00E94C607AACF10921E0410921D0462
:101FA000F2CE82309105F1F481E090E00E94080ABF
:101FB00090E08F3F910589F090931C0480931B045F
:101FC00060911B0470911C046F5F7F4F70931C0421
:101FD00060931B0481E090E0E2CE10921C0410920A
:101FE0001B04EECF039709F0E2CE82E090E00E945E
:101FF000080A90E08F3F910589F090931A0480932E
:1020000019046091190470911A046F5F7F4F7093E7
:102010001A046093190482E090E0C1CE10921A0471
:1020200010921904EECF10921E0410921D04DBCE04
:1020300082309105F1F484E090E00E94080A90E07B
:102040008F3F910589F090931C0480931B0460914D
:102050001B0470911C046F5F7F4F70931C0460938E
:102060001B0484E090E0CBCE10921C0410921B0461
:10207000EECF039709F0CBCE85E090E00E94080AEE
:1020800090E08F3F910589F090931A048093190492
:102090006091190470911A046F5F7F4F70931A0456
:1020A0006093190485E090E0AACE10921A04109271
:1020B0001904EECF10921E0410921D04C4CE82307B
:1020C0009105F1F487E090E00E94080A90E08F3FCC
:1020D000910589F090931C0480931B0460911B046C
:1020E00070911C046F5F7F4F70931C0460931B04FE
:1020F00087E090E0B4CE10921C0410921B04EECF47
:10210000039709F0B4CE88E090E00E94080A90E0BE
:102110008F3F910589F090931A0480931904609180
:10212000190470911A046F5F7F4F70931A046093C3
:10213000190488E090E093CE10921A0410921904CA
:10214000EECF10921E0410921D04ADCE8230910588
:10215000F1F48AE090E00E94080A90E08F3F910538
:1021600089F090931C0480931B0460911B04709170
:102170001C046F5F7F4F70931C0460931B048AE004
:1021800090E09DCE10921C0410921B04EECF03979A
:1021900009F09DCE8BE090E00E94080A90E08F3F0E
:1021A000910589F090931A048093190460911904A1
:1021B00070911A046F5F7F4F70931A046093190433
:1021C0008BE090E07CCE10921A0410921904EECFAE
:1021D000823351F50E9498088DED92E00E94F1093A
:1021E00081E00E94400981ED92E00E94F10983E0C4
:1021F00090E00E94080A0E94E80982E00E944009DB
:1022000085ED92E00E94F10984E090E00E94080AC6
:102210000E94E80983E00E94400989ED92E00E9453
:10222000F10985E090E0ADCE833351F50E94980826
:1022300082EF92E00E94F10981E00E94400981ED65
:1022400092E00E94F10986E090E00E94080A0E9454
:10225000E80982E00E94400985ED92E00E94F109C0
:1022600087E090E00E94080A0E94E80983E00E944B
:10227000400989ED92E00E94F10988E090E081CE6A
:10228000843351F50E94980887E093E00E94F10999
:1022900081E00E94400981ED92E00E94F10989E00D
:1022A00090E00E94080A0E94E80982E00E9440092A
:1022B00085ED92E00E94F1098AE090E00E94080A10
:1022C0000E94E80983E00E94400989ED92E00E94A3
:1022D000F1098BE090E055CE803309F085C00E9473
:1022E00098088CE193E00E94F10981E00E94400986
:1022F00081ED92E00E94F10990E080E00E94080ADE
:10230000C82F83E090E00E94080AC80FDD27DD1F78
:1023100086E090E00E94080AC80FD11D89E090E095
:102320000E94080AC80FD11D6AE070E080E090E0CA
:102330000E94C607BE0189EC96E00E94AD0982E0CA
:102340000E94400985ED92E00E94F10981E090E051
:102350000E94080AC82F84E090E00E94080AC80F73
:10236000DD27DD1F87E090E00E94080AC80FD11D1D
:102370008AE090E00E94080AC80FD11D6AE070E070
:1023800080E090E00E94C607BE0189EC96E00E94C2
:10239000AD0983E00E94400989ED92E00E94F109B5
:1023A00082E090E00E94080AC82F85E090E00E9439
:1023B000080AC80FDD27DD1F88E090E00E94080AA8
:1023C000C80FD11D8BE090E00E94080AC80FD11DF4
:1023D0006AE070E080E090E00E94C607BE0189ECF0
:1023E00096E00E94AD09D1CD8D3299F461E08CE187
:1023F0000E94240460E08DE10E9424040E94920463
:102400000E94980889E592E00E94F1090E946C03FD
:102410009ECC8D3309F0D3C090E080E00E94080A82
:10242000C82F83E090E00E94080AC80FDD27DD1F57
:1024300086E090E00E94080AC80FD11D89E090E074
:102440000E94080AC80FD11D81E090E00E94080A8E
:10245000E82E84E090E00E94080AE80EFF24FF1CAA
:1024600087E090E00E94080AE80EF11C8AE090E004
:102470000E94080AE80EF11C82E090E00E94080A1F
:10248000082F85E090E00E94080A080F1127111F0D
:1024900088E090E00E94080A080F111D8BE090E090
:1024A0000E94080A800F912F911DEC16FD060CF476
:1024B00066C0CE15DF050CF065C0E70102E010E054
:1024C000C817D9070CF43AC18C179D0709F45EC0F0
:1024D0000E9498088EEF93E00E94F109B8018AE10A
:1024E00096E00E94AD09B8018DE795E00E94AD0924
:1024F000B80180EE94E00E94AD09B80183E494E055
:102500000E94AD0960E090E080E00E94060A60E071
:1025100081E090E00E94060A60E082E090E00E9484
:10252000060A60E083E090E00E94060A60E084E032
:1025300090E00E94060A60E085E090E00E94060AB2
:1025400060E086E090E00E94060A60E087E090E0AC
:102550000E94060A60E088E090E00E94060A60E0BF
:1025600089E090E00E94060A60E08AE090E00E9424
:10257000060A60E08BE090E00E94060A1BC001E0C2
:1025800010E09ECFC817D9070CF4D8C00E94980855
:1025900081E393E00E94F10981E00E94400983E415
:1025A00093E00E94F10982E00E94400987E593E0F0
:1025B0000E94F1096CE271E080E090E0EACC8334A3
:1025C00009F094CC0E9498088CE693E00E94F109EF
:1025D00081E00E94400983E892E00E94F10982E0D4
:1025E0000E94400980E893E00E94F1090E944A0697
:1025F0008823E1F38133E1F460E090E080E00E9421
:10260000060A60E081E090E00E94060A60E082E055
:1026100090E00E94060A0E94980886E993E00E94D2
:10262000F1090E94920468EC70E080E090E0B1CC87
:102630008233A1F460E083E090E00E94060A60E04B
:1026400084E090E00E94060A60E085E090E00E944D
:10265000060A0E9498088BEA93E0E1CF8333A1F445
:1026600060E086E090E00E94060A60E087E090E08B
:102670000E94060A60E088E090E00E94060A0E943C
:10268000980880EC93E0CBCF8433A1F460E089E03C
:1026900090E00E94060A60E08AE090E00E94060A4C
:1026A00060E08BE090E00E94060A0E94980884EDAA
:1026B00093E0B5CF803309F019CC60E090E080E082
:1026C0000E94060A60E081E090E00E94060A60E055
:1026D00082E090E00E94060A60E083E090E00E94C1
:1026E000060A60E084E090E00E94060A60E085E06F
:1026F00090E00E94060A60E086E090E00E94060AF0
:1027000060E087E090E00E94060A60E088E090E0E8
:102710000E94060A60E089E090E00E94060A60E0FC
:102720008AE090E00E94060A60E08BE090E00E9460
:10273000060A0E94980889EE93E071CF03E010E04A
:10274000C7CE87EB96E00E94FE098DEB96E00E94D3
:10275000FE0983EC96E00C94FE09F999FECF92BD38
:1027600081BDF89A992780B50895262FF999FECF53
:102770001FBA92BD81BD20BD0FB6F894FA9AF99A9E
:102780000FBE01960895A1E21A2EAA1BBB1BFD01E4
:102790000DC0AA1FBB1FEE1FFF1FA217B307E40740
:1027A000F50720F0A21BB30BE40BF50B661F771F98
:1027B000881F991F1A9469F7609570958095909578
:1027C0009B01AC01BD01CF010895EE0FFF1F881FD3
:1027D0008BBF0790F691E02D19940F931F93CF9321
:1027E000DF938230910510F482E090E0E09152078F
:1027F000F091530730E020E0B0E0A0E0309799F48A
:102800002115310509F44AC0281B390B2430310544
:10281000D8F58A819B816115710589F1FB0193834C
:102820008283FE0111C040815181028113814817CA
:102830005907E0F04817590799F4109761F012967C
:102840000C93129713961C933296CF01DF91CF9180
:102850001F910F9108950093520710935307F4CFDF
:102860002115310551F04217530738F0A901DB015A
:102870009A01BD01DF01F801C1CFEF01F9CF9093BB
:10288000530780935207CDCFFE01E20FF31F8193D0
:1028900091932250310939832883D7CF2091500753
:1028A00030915107232B41F420911B0230911C02DF
:1028B00030935107209350072091190230911A024A
:1028C0002115310541F42DB73EB740911D025091BD
:1028D0001E02241B350BE0915007F0915107E217BF
:1028E000F307A0F42E1B3F0B2817390778F0AC0133
:1028F0004E5F5F4F2417350748F04E0F5F1F509310
:10290000510740935007819391939FCFF0E0E0E00F
:102910009CCFCF93DF930097E9F0FC0132971382AD
:102920001282A0915207B0915307ED0130E020E0F0
:102930001097A1F420813181820F931F20915007BD
:10294000309151072817390709F061C0F0935107FA
:10295000E0935007DF91CF910895EA01CE17DF078A
:10296000E8F54A815B819E0141155105B1F7E90106
:10297000FB83EA8349915991C40FD51FEC17FD07DA
:1029800061F4808191810296840F951FE9019983FA
:102990008883828193819B838A83F0E0E0E01296B2
:1029A0008D919C9113970097B9F52D913C911197BA
:1029B000CD010296820F931F20915007309151074D
:1029C0002817390739F6309751F5109253071092AE
:1029D0005207B0935107A0935007BCCFD383C28353
:1029E00040815181840F951FC817D90761F44E5F4C
:1029F0005F4F88819981480F591F518340838A8195
:102A00009B81938382832115310509F0B0CFF09328
:102A10005307E09352079ECFFD01DC01C0CF138224
:102A20001282D7CF4F925F926F927F928F929F9236
:102A3000AF92BF92CF92DF92EF92FF920F931F93CC
:102A4000CF93DF938C01009799F4CB01DF91CF9165
:102A50001F910F91FF90EF90DF90CF90BF90AF90BC
:102A60009F908F907F906F905F904F900C94ED139C
:102A7000FC01E60FF71F9C0122503109E217F30712
:102A800008F4AEC0D901CD91DC911197C617D707D4
:102A900020F1C530D10578F0CE010497861797074D
:102AA00050F0C61BD70B2297C193D1936D937C93A3
:102AB000CF010E948914C801DF91CF911F910F911E
:102AC000FF90EF90DF90CF90BF90AF909F908F904E
:102AD0007F906F905F904F9008955B01AC1ABD0A94
:102AE0004C018C0E9D1EA0915207B0915307512CA2
:102AF000412CF12CE12C109731F5809150079091E9
:102B000051078815990509F05CC04616570608F06C
:102B100058C08091190290911A02009741F48DB724
:102B20009EB740911D0250911E02841B950BE81721
:102B3000F90708F055C0F0935107E0935007F901E9
:102B400071836083B8CF8D919C91119712966C9090
:102B5000129713967C901397A815B90559F56C0137
:102B600042E0C40ED11CCA14DB0420F1AC014A19A6
:102B70005B09DA011296159780F0628273825183A5
:102B80004083D9016D937C93E114F10471F0D70176
:102B90001396FC93EE9312978ECF22968C0F9D1F67
:102BA000F90191838083F301EFCFF0935307E09312
:102BB000520781CF4816590608F42C017D01D30134
:102BC0009ACFCB010E94ED137C01009749F0AE0132
:102BD000B8010E94F315C8010E94891487016BCFC8
:102BE00010E000E068CFFB01DC0102C001900D9213
:102BF00041505040D8F70895FB01DC0101900D923F
:102C00000020E1F7089511E0C4E4D1E000E006C03F
:102C1000802FFE010E94E5132196011DC534D107C6
:0A2C200080E00807A9F7F894FFCF41
:102C2A00FF05040302090807063738392F343536F9
:102C3A002A3132332D43303D2B00005407800000E7
:102C4A00000000FF02320278024C03A90287029BAD
:102C5A0002000000004E093202F907F807000000DE
:102C6A000046065204210452656973690072456977
:102C7A007369007265497369002020202020202092
:102C8A00204F464620202020202020202000576860
:102C9A006963682044657669636520526573756C5B
:102CAA00743F00456E7465722030746F342F203083
:102CBA003A20546F74616C002D5475726E4F6666BB
:102CCA00203D5465726D696E6174650043204572DA
:102CDA006173654D656D6F7279202000202044650F
:102CEA0076696365203120526573756C743A2020C9
:102CFA0000312E2000322E2000332E2000202044C6
:102D0A006576696365203220526573756C743A2062
:102D1A00200020204465766963652033205265735C
:102D2A00756C743A2020002020446576696365201A
:102D3A003420526573756C743A2020002020205488
:102D4A006F74616C20526573756C743A2020202070
:102D5A00002020202020202044726177212020207A
:102D6A002020005468657265206973206E6F742094
:102D7A0057696E6E6572002020436F6E74696E75B6
:102D8A006520506F6C6C696E672020004572617314
:102D9A0065205768696368204465766963653F0002
:102DAA0020202020272D2720746F2043616E636521
:102DBA006C2020202000202044657669636520313C
:102DCA0020457261736564202020002020446576C6
:102DDA006963652032204572617365642020200092
:102DEA0020204465766963652033204572617365E6
:102DFA0064202000202044657669636520342045DC
:102E0A0072617365642020200020416C6C20446547
:102E1A007669636573204572617365642000205288
:102E2A006573756C74205075626C6973686564218A
:042E3A002020000054
:00000001FF
